{"project/contracts/InferenceProviderRegistry.sol":{"InferenceProviderRegistry":{"abi":[{"anonymous":false,"inputs":[{"indexed":true,"internalType":"uint256","name":"providerId","type":"uint256"},{"indexed":false,"internalType":"uint256","name":"secondsRun","type":"uint256"},{"indexed":false,"internalType":"uint256","name":"earnedUsdc","type":"uint256"}],"name":"MetricsReported","type":"event"},{"anonymous":false,"inputs":[{"indexed":true,"internalType":"uint256","name":"providerId","type":"uint256"}],"name":"ProviderDeactivated","type":"event"},{"anonymous":false,"inputs":[{"indexed":true,"internalType":"uint256","name":"providerId","type":"uint256"},{"indexed":true,"internalType":"address","name":"wallet","type":"address"},{"indexed":false,"internalType":"string","name":"modelName","type":"string"}],"name":"ProviderRegistered","type":"event"},{"inputs":[{"internalType":"uint256","name":"providerId","type":"uint256"}],"name":"deactivateProvider","outputs":[],"stateMutability":"nonpayable","type":"function"},{"inputs":[],"name":"getAllProviderIds","outputs":[{"internalType":"uint256[]","name":"","type":"uint256[]"}],"stateMutability":"view","type":"function"},{"inputs":[{"internalType":"uint256","name":"providerId","type":"uint256"}],"name":"getProvider","outputs":[{"components":[{"internalType":"uint256","name":"id","type":"uint256"},{"internalType":"string","name":"modelName","type":"string"},{"internalType":"uint256","name":"basePrice","type":"uint256"},{"internalType":"string","name":"features","type":"string"},{"internalType":"address","name":"walletAddress","type":"address"},{"internalType":"bool","name":"isActive","type":"bool"},{"internalType":"uint256","name":"totalInferenceSeconds","type":"uint256"},{"internalType":"uint256","name":"totalUSDCEarned","type":"uint256"},{"internalType":"uint256","name":"registeredAt","type":"uint256"},{"internalType":"uint256","name":"lastReportAt","type":"uint256"},{"components":[{"internalType":"uint64","name":"uptimePct","type":"uint64"},{"internalType":"uint64","name":"avgLatencyMs","type":"uint64"},{"internalType":"uint64","name":"errorRatePpm","type":"uint64"},{"internalType":"uint64","name":"totalSessions","type":"uint64"},{"internalType":"uint256","name":"totalRevenue","type":"uint256"}],"internalType":"struct InferenceProviderRegistry.ReputationScore","name":"reputation","type":"tuple"}],"internalType":"struct InferenceProviderRegistry.Provider","name":"","type":"tuple"}],"stateMutability":"view","type":"function"},{"inputs":[{"internalType":"uint256","name":"providerId","type":"uint256"}],"name":"getProviderReputation","outputs":[{"components":[{"internalType":"uint64","name":"uptimePct","type":"uint64"},{"internalType":"uint64","name":"avgLatencyMs","type":"uint64"},{"internalType":"uint64","name":"errorRatePpm","type":"uint64"},{"internalType":"uint64","name":"totalSessions","type":"uint64"},{"internalType":"uint256","name":"totalRevenue","type":"uint256"}],"internalType":"struct InferenceProviderRegistry.ReputationScore","name":"","type":"tuple"}],"stateMutability":"view","type":"function"},{"inputs":[{"internalType":"address","name":"","type":"address"}],"name":"providerIdByWallet","outputs":[{"internalType":"uint256","name":"","type":"uint256"}],"stateMutability":"view","type":"function"},{"inputs":[{"internalType":"string","name":"modelName","type":"string"},{"internalType":"uint256","name":"basePrice","type":"uint256"},{"internalType":"string","name":"features","type":"string"},{"internalType":"address","name":"walletAddress","type":"address"}],"name":"registerProvider","outputs":[{"internalType":"uint256","name":"providerId","type":"uint256"}],"stateMutability":"nonpayable","type":"function"},{"inputs":[{"internalType":"uint256","name":"providerId","type":"uint256"},{"internalType":"uint256","name":"secondsRun","type":"uint256"},{"internalType":"uint256","name":"earnedUsdc","type":"uint256"},{"internalType":"uint64","name":"errorCount","type":"uint64"},{"internalType":"uint64","name":"avgLatencyMs","type":"uint64"}],"name":"reportMetrics","outputs":[],"stateMutability":"nonpayable","type":"function"},{"inputs":[],"name":"totalProviders","outputs":[{"internalType":"uint256","name":"","type":"uint256"}],"stateMutability":"view","type":"function"}],"evm":{"bytecode":{"linkReferences":{},"object":"608060405260015f55348015610013575f80fd5b50611264806100215f395ff3fe608060405234801561000f575f80fd5b5060043610610085575f3560e01c806376f301741161005857806376f301741461018757806396616b1f1461019c578063b5882071146101ae578063bc689e93146101cd575f80fd5b80630d2bbacb146100895780634509ba2b1461013f578063540d2748146101545780635c42d07914610167575b5f80fd5b610129610097366004610b51565b6040805160a0810182525f80825260208201819052918101829052606081018290526080810191909152505f90815260016020908152604091829020825160a08101845260098201546001600160401b038082168352600160401b8204811694830194909452600160801b8104841694820194909452600160c01b9093049091166060830152600a0154608082015290565b6040516101369190610b68565b60405180910390f35b61015261014d366004610bd3565b6101e0565b005b610152610162366004610b51565b61045f565b61017a610175366004610b51565b6104df565b6040516101369190610c62565b61018f6106ef565b6040516101369190610d60565b6003545b604051908152602001610136565b6101a06101bc366004610db9565b60026020525f908152604090205481565b6101a06101db366004610e1d565b610745565b5f8581526001602052604090206004015485906001600160a01b031633146102235760405162461bcd60e51b815260040161021a90610e9f565b60405180910390fd5b5f86815260016020526040812060058101805491928892610245908490610f10565b9250508190555084816006015f82825461025f9190610f10565b90915550504260088201556009810180546001908290601890610293908490600160c01b90046001600160401b0316610f23565b92506101000a8154816001600160401b0302191690836001600160401b0316021790555085816001015f8282546102ca9190610f10565b90915550508054600160401b90046001600160401b03165f0361030f57805467ffffffffffffffff60401b1916600160401b6001600160401b0386160217815561036d565b8054600890859061033190600160401b90046001600160401b03166007610f4a565b61033b9190610f23565b6103459190610f89565b81546001600160401b0391909116600160401b0267ffffffffffffffff60401b199091161781555b8054600160c01b90046001600160401b03161561041a5780546001600160401b0390600160c01b900481166103a7878316620f4240610fae565b6103b19190610fc5565b116103e95780546001600160401b03600160c01b9091048116906103da908716620f4240610fae565b6103e49190610fc5565b6103f2565b6001600160401b035b81546001600160401b0391909116600160801b0267ffffffffffffffff60801b199091161781555b604080518881526020810188905289917fccbf8d309918e6a57a3e541435064295b67d79563c3d244f3943d80c756f14ee910160405180910390a25050505050505050565b5f8181526001602052604090206004015481906001600160a01b031633146104995760405162461bcd60e51b815260040161021a90610e9f565b5f82815260016020526040808220600401805460ff60a01b191690555183917f21f8438182d8680a10580beb2bd887e639299b4354f2eef7144fddf6a63e899491a25050565b6104e7610ac7565b5f82815260016020818152604092839020835161016081019094528054845291820180549184019161051890610fd8565b80601f016020809104026020016040519081016040528092919081815260200182805461054490610fd8565b801561058f5780601f106105665761010080835404028352916020019161058f565b820191905f5260205f20905b81548152906001019060200180831161057257829003601f168201915b50505050508152602001600282015481526020016003820180546105b290610fd8565b80601f01602080910402602001604051908101604052809291908181526020018280546105de90610fd8565b80156106295780601f1061060057610100808354040283529160200191610629565b820191905f5260205f20905b81548152906001019060200180831161060c57829003601f168201915b505050918352505060048201546001600160a01b038116602080840191909152600160a01b90910460ff16151560408084019190915260058401546060808501919091526006850154608080860191909152600786015460a080870191909152600887015460c08701528351908101845260098701546001600160401b038082168352600160401b8204811696830196909652600160801b8104861694820194909452600160c01b90930490931690820152600a909301549083015260e0015292915050565b6060600380548060200260200160405190810160405280929190818152602001828054801561073b57602002820191905f5260205f20905b815481526020019060010190808311610727575b5050505050905090565b6001600160a01b0381165f9081526002602052604081205480156107fd575f818152600160208190526040909120908101610781898b83611072565b506002810187905560038101610798868883611072565b5060048101805460ff60a01b1916600160a01b1790556040516001600160a01b0385169083907f5bff06ea7416a9e74b3c84f839ae5374b91c213b0f140bfe1bcaf209a1eec64f906107ed908d908d9061112d565b60405180910390a3509050610abd565b5f8054908061080b8361115b565b91905055915060405180610160016040528083815260200189898080601f0160208091040260200160405190810160405280939291908181526020018383808284375f92019190915250505090825250602080820189905260408051601f890183900483028101830182528881529201919088908890819084018382808284375f9201829052509385525050506001600160a01b03861660208084019190915260016040808501829052606080860185905260808087018690524260a080890182905260c08901919091528351908101845260648152808601879052808401879052918201869052810185905260e09095019490945286835280825292909120835181559083015190918201906109229082611173565b5060408201516002820155606082015160038201906109419082611173565b5060808281015160048301805460a08601511515600160a01b026001600160a81b03199091166001600160a01b039384161717905560c0840151600584015560e084015160068401556101008401516007840155610120840151600884015561014090930151805160098401805460208085015160408087015160608801516001600160401b03908116600160c01b026001600160c01b03928216600160801b02929092166fffffffffffffffffffffffffffffffff948216600160401b026fffffffffffffffffffffffffffffffff199097169190981617949094179190911694909417919091179091559190920151600a909301929092559185165f81815260029092528282208590556003805460018101825592527fc2575a0e9e593c00f959f8c92f12db2869c3395a3b0502d05e2516446f71f85b909101849055905183907f5bff06ea7416a9e74b3c84f839ae5374b91c213b0f140bfe1bcaf209a1eec64f90610ab3908c908c9061112d565b60405180910390a3505b9695505050505050565b6040518061016001604052805f8152602001606081526020015f8152602001606081526020015f6001600160a01b031681526020015f151581526020015f81526020015f81526020015f81526020015f8152602001610b4c6040805160a0810182525f8082526020820181905291810182905260608101829052608081019190915290565b905290565b5f60208284031215610b61575f80fd5b5035919050565b60a08101610bb282846001600160401b0380825116835280602083015116602084015280604083015116604084015280606083015116606084015250608081015160808301525050565b92915050565b80356001600160401b0381168114610bce575f80fd5b919050565b5f805f805f60a08688031215610be7575f80fd5b853594506020860135935060408601359250610c0560608701610bb8565b9150610c1360808701610bb8565b90509295509295909350565b5f81518084525f5b81811015610c4357602081850181015186830182015201610c27565b505f602082860101526020601f19601f83011685010191505092915050565b60208152815160208201525f60208301516101e06040840152610c89610200840182610c1f565b9050604084015160608401526060840151601f19848303016080850152610cb08282610c1f565b9150506080840151610ccd60a08501826001600160a01b03169052565b5060a084015180151560c08501525060c084015160e08481019190915284015161010080850191909152840151610120808501919091528401516101408085019190915284015180516001600160401b0390811661016086015260208201518116610180860152604082015181166101a08601526060820151166101c085015260808101516101e0850152509392505050565b602080825282518282018190525f9190848201906040850190845b81811015610d9757835183529284019291840191600101610d7b565b50909695505050505050565b80356001600160a01b0381168114610bce575f80fd5b5f60208284031215610dc9575f80fd5b610dd282610da3565b9392505050565b5f8083601f840112610de9575f80fd5b5081356001600160401b03811115610dff575f80fd5b602083019150836020828501011115610e16575f80fd5b9250929050565b5f805f805f8060808789031215610e32575f80fd5b86356001600160401b0380821115610e48575f80fd5b610e548a838b01610dd9565b9098509650602089013595506040890135915080821115610e73575f80fd5b50610e8089828a01610dd9565b9094509250610e93905060608801610da3565b90509295509295509295565b6020808252603c908201527f496e666572656e636550726f766964657252656769737472793a2063616c6c6560408201527f72206973206e6f74207468652070726f76696465722077616c6c657400000000606082015260800190565b634e487b7160e01b5f52601160045260245ffd5b80820180821115610bb257610bb2610efc565b6001600160401b03818116838216019080821115610f4357610f43610efc565b5092915050565b6001600160401b03818116838216028082169190828114610f6d57610f6d610efc565b505092915050565b634e487b7160e01b5f52601260045260245ffd5b5f6001600160401b0380841680610fa257610fa2610f75565b92169190910492915050565b8082028115828204841417610bb257610bb2610efc565b5f82610fd357610fd3610f75565b500490565b600181811c90821680610fec57607f821691505b60208210810361100a57634e487b7160e01b5f52602260045260245ffd5b50919050565b634e487b7160e01b5f52604160045260245ffd5b601f82111561106d575f81815260208120601f850160051c8101602086101561104a5750805b601f850160051c820191505b8181101561106957828155600101611056565b5050505b505050565b6001600160401b0383111561108957611089611010565b61109d836110978354610fd8565b83611024565b5f601f8411600181146110ce575f85156110b75750838201355b5f19600387901b1c1916600186901b178355611126565b5f83815260209020601f19861690835b828110156110fe57868501358255602094850194600190920191016110de565b508682101561111a575f1960f88860031b161c19848701351681555b505060018560011b0183555b5050505050565b60208152816020820152818360408301375f818301604090810191909152601f909201601f19160101919050565b5f6001820161116c5761116c610efc565b5060010190565b81516001600160401b0381111561118c5761118c611010565b6111a08161119a8454610fd8565b84611024565b602080601f8311600181146111d3575f84156111bc5750858301515b5f19600386901b1c1916600185901b178555611069565b5f85815260208120601f198616915b82811015611201578886015182559484019460019091019084016111e2565b508582101561121e57878501515f19600388901b60f8161c191681555b5050505050600190811b0190555056fea26469706673582212206be37be780402363cb0c54ec04b0c349f7b298ccbed6f29e6618cadcc320ca6464736f6c63430008140033","opcodes":"PUSH1 0x80 PUSH1 0x40 MSTORE PUSH1 0x1 PUSH0 SSTORE CALLVALUE DUP1 ISZERO PUSH2 0x13 JUMPI PUSH0 DUP1 REVERT JUMPDEST POP PUSH2 0x1264 DUP1 PUSH2 0x21 PUSH0 CODECOPY PUSH0 RETURN INVALID PUSH1 0x80 PUSH1 0x40 MSTORE CALLVALUE DUP1 ISZERO PUSH2 0xF JUMPI PUSH0 DUP1 REVERT JUMPDEST POP PUSH1 0x4 CALLDATASIZE LT PUSH2 0x85 JUMPI PUSH0 CALLDATALOAD PUSH1 0xE0 SHR DUP1 PUSH4 0x76F30174 GT PUSH2 0x58 JUMPI DUP1 PUSH4 0x76F30174 EQ PUSH2 0x187 JUMPI DUP1 PUSH4 0x96616B1F EQ PUSH2 0x19C JUMPI DUP1 PUSH4 0xB5882071 EQ PUSH2 0x1AE JUMPI DUP1 PUSH4 0xBC689E93 EQ PUSH2 0x1CD JUMPI PUSH0 DUP1 REVERT JUMPDEST DUP1 PUSH4 0xD2BBACB EQ PUSH2 0x89 JUMPI DUP1 PUSH4 0x4509BA2B EQ PUSH2 0x13F JUMPI DUP1 PUSH4 0x540D2748 EQ PUSH2 0x154 JUMPI DUP1 PUSH4 0x5C42D079 EQ PUSH2 0x167 JUMPI JUMPDEST PUSH0 DUP1 REVERT JUMPDEST PUSH2 0x129 PUSH2 0x97 CALLDATASIZE PUSH1 0x4 PUSH2 0xB51 JUMP JUMPDEST PUSH1 0x40 DUP1 MLOAD PUSH1 0xA0 DUP2 ADD DUP3 MSTORE PUSH0 DUP1 DUP3 MSTORE PUSH1 0x20 DUP3 ADD DUP2 SWAP1 MSTORE SWAP2 DUP2 ADD DUP3 SWAP1 MSTORE PUSH1 0x60 DUP2 ADD DUP3 SWAP1 MSTORE PUSH1 0x80 DUP2 ADD SWAP2 SWAP1 SWAP2 MSTORE POP PUSH0 SWAP1 DUP2 MSTORE PUSH1 0x1 PUSH1 0x20 SWAP1 DUP2 MSTORE PUSH1 0x40 SWAP2 DUP3 SWAP1 KECCAK256 DUP3 MLOAD PUSH1 0xA0 DUP2 ADD DUP5 MSTORE PUSH1 0x9 DUP3 ADD SLOAD PUSH1 0x1 PUSH1 0x1 PUSH1 0x40 SHL SUB DUP1 DUP3 AND DUP4 MSTORE PUSH1 0x1 PUSH1 0x40 SHL DUP3 DIV DUP2 AND SWAP5 DUP4 ADD SWAP5 SWAP1 SWAP5 MSTORE PUSH1 0x1 PUSH1 0x80 SHL DUP2 DIV DUP5 AND SWAP5 DUP3 ADD SWAP5 SWAP1 SWAP5 MSTORE PUSH1 0x1 PUSH1 0xC0 SHL SWAP1 SWAP4 DIV SWAP1 SWAP2 AND PUSH1 0x60 DUP4 ADD MSTORE PUSH1 0xA ADD SLOAD PUSH1 0x80 DUP3 ADD MSTORE SWAP1 JUMP JUMPDEST PUSH1 0x40 MLOAD PUSH2 0x136 SWAP2 SWAP1 PUSH2 0xB68 JUMP JUMPDEST PUSH1 0x40 MLOAD DUP1 SWAP2 SUB SWAP1 RETURN JUMPDEST PUSH2 0x152 PUSH2 0x14D CALLDATASIZE PUSH1 0x4 PUSH2 0xBD3 JUMP JUMPDEST PUSH2 0x1E0 JUMP JUMPDEST STOP JUMPDEST PUSH2 0x152 PUSH2 0x162 CALLDATASIZE PUSH1 0x4 PUSH2 0xB51 JUMP JUMPDEST PUSH2 0x45F JUMP JUMPDEST PUSH2 0x17A PUSH2 0x175 CALLDATASIZE PUSH1 0x4 PUSH2 0xB51 JUMP JUMPDEST PUSH2 0x4DF JUMP JUMPDEST PUSH1 0x40 MLOAD PUSH2 0x136 SWAP2 SWAP1 PUSH2 0xC62 JUMP JUMPDEST PUSH2 0x18F PUSH2 0x6EF JUMP JUMPDEST PUSH1 0x40 MLOAD PUSH2 0x136 SWAP2 SWAP1 PUSH2 0xD60 JUMP JUMPDEST PUSH1 0x3 SLOAD JUMPDEST PUSH1 0x40 MLOAD SWAP1 DUP2 MSTORE PUSH1 0x20 ADD PUSH2 0x136 JUMP JUMPDEST PUSH2 0x1A0 PUSH2 0x1BC CALLDATASIZE PUSH1 0x4 PUSH2 0xDB9 JUMP JUMPDEST PUSH1 0x2 PUSH1 0x20 MSTORE PUSH0 SWAP1 DUP2 MSTORE PUSH1 0x40 SWAP1 KECCAK256 SLOAD DUP2 JUMP JUMPDEST PUSH2 0x1A0 PUSH2 0x1DB CALLDATASIZE PUSH1 0x4 PUSH2 0xE1D JUMP JUMPDEST PUSH2 0x745 JUMP JUMPDEST PUSH0 DUP6 DUP2 MSTORE PUSH1 0x1 PUSH1 0x20 MSTORE PUSH1 0x40 SWAP1 KECCAK256 PUSH1 0x4 ADD SLOAD DUP6 SWAP1 PUSH1 0x1 PUSH1 0x1 PUSH1 0xA0 SHL SUB AND CALLER EQ PUSH2 0x223 JUMPI PUSH1 0x40 MLOAD PUSH3 0x461BCD PUSH1 0xE5 SHL DUP2 MSTORE PUSH1 0x4 ADD PUSH2 0x21A SWAP1 PUSH2 0xE9F JUMP JUMPDEST PUSH1 0x40 MLOAD DUP1 SWAP2 SUB SWAP1 REVERT JUMPDEST PUSH0 DUP7 DUP2 MSTORE PUSH1 0x1 PUSH1 0x20 MSTORE PUSH1 0x40 DUP2 KECCAK256 PUSH1 0x5 DUP2 ADD DUP1 SLOAD SWAP2 SWAP3 DUP9 SWAP3 PUSH2 0x245 SWAP1 DUP5 SWAP1 PUSH2 0xF10 JUMP JUMPDEST SWAP3 POP POP DUP2 SWAP1 SSTORE POP DUP5 DUP2 PUSH1 0x6 ADD PUSH0 DUP3 DUP3 SLOAD PUSH2 0x25F SWAP2 SWAP1 PUSH2 0xF10 JUMP JUMPDEST SWAP1 SWAP2 SSTORE POP POP TIMESTAMP PUSH1 0x8 DUP3 ADD SSTORE PUSH1 0x9 DUP2 ADD DUP1 SLOAD PUSH1 0x1 SWAP1 DUP3 SWAP1 PUSH1 0x18 SWAP1 PUSH2 0x293 SWAP1 DUP5 SWAP1 PUSH1 0x1 PUSH1 0xC0 SHL SWAP1 DIV PUSH1 0x1 PUSH1 0x1 PUSH1 0x40 SHL SUB AND PUSH2 0xF23 JUMP JUMPDEST SWAP3 POP PUSH2 0x100 EXP DUP2 SLOAD DUP2 PUSH1 0x1 PUSH1 0x1 PUSH1 0x40 SHL SUB MUL NOT AND SWAP1 DUP4 PUSH1 0x1 PUSH1 0x1 PUSH1 0x40 SHL SUB AND MUL OR SWAP1 SSTORE POP DUP6 DUP2 PUSH1 0x1 ADD PUSH0 DUP3 DUP3 SLOAD PUSH2 0x2CA SWAP2 SWAP1 PUSH2 0xF10 JUMP JUMPDEST SWAP1 SWAP2 SSTORE POP POP DUP1 SLOAD PUSH1 0x1 PUSH1 0x40 SHL SWAP1 DIV PUSH1 0x1 PUSH1 0x1 PUSH1 0x40 SHL SUB AND PUSH0 SUB PUSH2 0x30F JUMPI DUP1 SLOAD PUSH8 0xFFFFFFFFFFFFFFFF PUSH1 0x40 SHL NOT AND PUSH1 0x1 PUSH1 0x40 SHL PUSH1 0x1 PUSH1 0x1 PUSH1 0x40 SHL SUB DUP7 AND MUL OR DUP2 SSTORE PUSH2 0x36D JUMP JUMPDEST DUP1 SLOAD PUSH1 0x8 SWAP1 DUP6 SWAP1 PUSH2 0x331 SWAP1 PUSH1 0x1 PUSH1 0x40 SHL SWAP1 DIV PUSH1 0x1 PUSH1 0x1 PUSH1 0x40 SHL SUB AND PUSH1 0x7 PUSH2 0xF4A JUMP JUMPDEST PUSH2 0x33B SWAP2 SWAP1 PUSH2 0xF23 JUMP JUMPDEST PUSH2 0x345 SWAP2 SWAP1 PUSH2 0xF89 JUMP JUMPDEST DUP2 SLOAD PUSH1 0x1 PUSH1 0x1 PUSH1 0x40 SHL SUB SWAP2 SWAP1 SWAP2 AND PUSH1 0x1 PUSH1 0x40 SHL MUL PUSH8 0xFFFFFFFFFFFFFFFF PUSH1 0x40 SHL NOT SWAP1 SWAP2 AND OR DUP2 SSTORE JUMPDEST DUP1 SLOAD PUSH1 0x1 PUSH1 0xC0 SHL SWAP1 DIV PUSH1 0x1 PUSH1 0x1 PUSH1 0x40 SHL SUB AND ISZERO PUSH2 0x41A JUMPI DUP1 SLOAD PUSH1 0x1 PUSH1 0x1 PUSH1 0x40 SHL SUB SWAP1 PUSH1 0x1 PUSH1 0xC0 SHL SWAP1 DIV DUP2 AND PUSH2 0x3A7 DUP8 DUP4 AND PUSH3 0xF4240 PUSH2 0xFAE JUMP JUMPDEST PUSH2 0x3B1 SWAP2 SWAP1 PUSH2 0xFC5 JUMP JUMPDEST GT PUSH2 0x3E9 JUMPI DUP1 SLOAD PUSH1 0x1 PUSH1 0x1 PUSH1 0x40 SHL SUB PUSH1 0x1 PUSH1 0xC0 SHL SWAP1 SWAP2 DIV DUP2 AND SWAP1 PUSH2 0x3DA SWAP1 DUP8 AND PUSH3 0xF4240 PUSH2 0xFAE JUMP JUMPDEST PUSH2 0x3E4 SWAP2 SWAP1 PUSH2 0xFC5 JUMP JUMPDEST PUSH2 0x3F2 JUMP JUMPDEST PUSH1 0x1 PUSH1 0x1 PUSH1 0x40 SHL SUB JUMPDEST DUP2 SLOAD PUSH1 0x1 PUSH1 0x1 PUSH1 0x40 SHL SUB SWAP2 SWAP1 SWAP2 AND PUSH1 0x1 PUSH1 0x80 SHL MUL PUSH8 0xFFFFFFFFFFFFFFFF PUSH1 0x80 SHL NOT SWAP1 SWAP2 AND OR DUP2 SSTORE JUMPDEST PUSH1 0x40 DUP1 MLOAD DUP9 DUP2 MSTORE PUSH1 0x20 DUP2 ADD DUP9 SWAP1 MSTORE DUP10 SWAP2 PUSH32 0xCCBF8D309918E6A57A3E541435064295B67D79563C3D244F3943D80C756F14EE SWAP2 ADD PUSH1 0x40 MLOAD DUP1 SWAP2 SUB SWAP1 LOG2 POP POP POP POP POP POP POP POP JUMP JUMPDEST PUSH0 DUP2 DUP2 MSTORE PUSH1 0x1 PUSH1 0x20 MSTORE PUSH1 0x40 SWAP1 KECCAK256 PUSH1 0x4 ADD SLOAD DUP2 SWAP1 PUSH1 0x1 PUSH1 0x1 PUSH1 0xA0 SHL SUB AND CALLER EQ PUSH2 0x499 JUMPI PUSH1 0x40 MLOAD PUSH3 0x461BCD PUSH1 0xE5 SHL DUP2 MSTORE PUSH1 0x4 ADD PUSH2 0x21A SWAP1 PUSH2 0xE9F JUMP JUMPDEST PUSH0 DUP3 DUP2 MSTORE PUSH1 0x1 PUSH1 0x20 MSTORE PUSH1 0x40 DUP1 DUP3 KECCAK256 PUSH1 0x4 ADD DUP1 SLOAD PUSH1 0xFF PUSH1 0xA0 SHL NOT AND SWAP1 SSTORE MLOAD DUP4 SWAP2 PUSH32 0x21F8438182D8680A10580BEB2BD887E639299B4354F2EEF7144FDDF6A63E8994 SWAP2 LOG2 POP POP JUMP JUMPDEST PUSH2 0x4E7 PUSH2 0xAC7 JUMP JUMPDEST PUSH0 DUP3 DUP2 MSTORE PUSH1 0x1 PUSH1 0x20 DUP2 DUP2 MSTORE PUSH1 0x40 SWAP3 DUP4 SWAP1 KECCAK256 DUP4 MLOAD PUSH2 0x160 DUP2 ADD SWAP1 SWAP5 MSTORE DUP1 SLOAD DUP5 MSTORE SWAP2 DUP3 ADD DUP1 SLOAD SWAP2 DUP5 ADD SWAP2 PUSH2 0x518 SWAP1 PUSH2 0xFD8 JUMP JUMPDEST DUP1 PUSH1 0x1F ADD PUSH1 0x20 DUP1 SWAP2 DIV MUL PUSH1 0x20 ADD PUSH1 0x40 MLOAD SWAP1 DUP2 ADD PUSH1 0x40 MSTORE DUP1 SWAP3 SWAP2 SWAP1 DUP2 DUP2 MSTORE PUSH1 0x20 ADD DUP3 DUP1 SLOAD PUSH2 0x544 SWAP1 PUSH2 0xFD8 JUMP JUMPDEST DUP1 ISZERO PUSH2 0x58F JUMPI DUP1 PUSH1 0x1F LT PUSH2 0x566 JUMPI PUSH2 0x100 DUP1 DUP4 SLOAD DIV MUL DUP4 MSTORE SWAP2 PUSH1 0x20 ADD SWAP2 PUSH2 0x58F JUMP JUMPDEST DUP3 ADD SWAP2 SWAP1 PUSH0 MSTORE PUSH1 0x20 PUSH0 KECCAK256 SWAP1 JUMPDEST DUP2 SLOAD DUP2 MSTORE SWAP1 PUSH1 0x1 ADD SWAP1 PUSH1 0x20 ADD DUP1 DUP4 GT PUSH2 0x572 JUMPI DUP3 SWAP1 SUB PUSH1 0x1F AND DUP3 ADD SWAP2 JUMPDEST POP POP POP POP POP DUP2 MSTORE PUSH1 0x20 ADD PUSH1 0x2 DUP3 ADD SLOAD DUP2 MSTORE PUSH1 0x20 ADD PUSH1 0x3 DUP3 ADD DUP1 SLOAD PUSH2 0x5B2 SWAP1 PUSH2 0xFD8 JUMP JUMPDEST DUP1 PUSH1 0x1F ADD PUSH1 0x20 DUP1 SWAP2 DIV MUL PUSH1 0x20 ADD PUSH1 0x40 MLOAD SWAP1 DUP2 ADD PUSH1 0x40 MSTORE DUP1 SWAP3 SWAP2 SWAP1 DUP2 DUP2 MSTORE PUSH1 0x20 ADD DUP3 DUP1 SLOAD PUSH2 0x5DE SWAP1 PUSH2 0xFD8 JUMP JUMPDEST DUP1 ISZERO PUSH2 0x629 JUMPI DUP1 PUSH1 0x1F LT PUSH2 0x600 JUMPI PUSH2 0x100 DUP1 DUP4 SLOAD DIV MUL DUP4 MSTORE SWAP2 PUSH1 0x20 ADD SWAP2 PUSH2 0x629 JUMP JUMPDEST DUP3 ADD SWAP2 SWAP1 PUSH0 MSTORE PUSH1 0x20 PUSH0 KECCAK256 SWAP1 JUMPDEST DUP2 SLOAD DUP2 MSTORE SWAP1 PUSH1 0x1 ADD SWAP1 PUSH1 0x20 ADD DUP1 DUP4 GT PUSH2 0x60C JUMPI DUP3 SWAP1 SUB PUSH1 0x1F AND DUP3 ADD SWAP2 JUMPDEST POP POP POP SWAP2 DUP4 MSTORE POP POP PUSH1 0x4 DUP3 ADD SLOAD PUSH1 0x1 PUSH1 0x1 PUSH1 0xA0 SHL SUB DUP2 AND PUSH1 0x20 DUP1 DUP5 ADD SWAP2 SWAP1 SWAP2 MSTORE PUSH1 0x1 PUSH1 0xA0 SHL SWAP1 SWAP2 DIV PUSH1 0xFF AND ISZERO ISZERO PUSH1 0x40 DUP1 DUP5 ADD SWAP2 SWAP1 SWAP2 MSTORE PUSH1 0x5 DUP5 ADD SLOAD PUSH1 0x60 DUP1 DUP6 ADD SWAP2 SWAP1 SWAP2 MSTORE PUSH1 0x6 DUP6 ADD SLOAD PUSH1 0x80 DUP1 DUP7 ADD SWAP2 SWAP1 SWAP2 MSTORE PUSH1 0x7 DUP7 ADD SLOAD PUSH1 0xA0 DUP1 DUP8 ADD SWAP2 SWAP1 SWAP2 MSTORE PUSH1 0x8 DUP8 ADD SLOAD PUSH1 0xC0 DUP8 ADD MSTORE DUP4 MLOAD SWAP1 DUP2 ADD DUP5 MSTORE PUSH1 0x9 DUP8 ADD SLOAD PUSH1 0x1 PUSH1 0x1 PUSH1 0x40 SHL SUB DUP1 DUP3 AND DUP4 MSTORE PUSH1 0x1 PUSH1 0x40 SHL DUP3 DIV DUP2 AND SWAP7 DUP4 ADD SWAP7 SWAP1 SWAP7 MSTORE PUSH1 0x1 PUSH1 0x80 SHL DUP2 DIV DUP7 AND SWAP5 DUP3 ADD SWAP5 SWAP1 SWAP5 MSTORE PUSH1 0x1 PUSH1 0xC0 SHL SWAP1 SWAP4 DIV SWAP1 SWAP4 AND SWAP1 DUP3 ADD MSTORE PUSH1 0xA SWAP1 SWAP4 ADD SLOAD SWAP1 DUP4 ADD MSTORE PUSH1 0xE0 ADD MSTORE SWAP3 SWAP2 POP POP JUMP JUMPDEST PUSH1 0x60 PUSH1 0x3 DUP1 SLOAD DUP1 PUSH1 0x20 MUL PUSH1 0x20 ADD PUSH1 0x40 MLOAD SWAP1 DUP2 ADD PUSH1 0x40 MSTORE DUP1 SWAP3 SWAP2 SWAP1 DUP2 DUP2 MSTORE PUSH1 0x20 ADD DUP3 DUP1 SLOAD DUP1 ISZERO PUSH2 0x73B JUMPI PUSH1 0x20 MUL DUP3 ADD SWAP2 SWAP1 PUSH0 MSTORE PUSH1 0x20 PUSH0 KECCAK256 SWAP1 JUMPDEST DUP2 SLOAD DUP2 MSTORE PUSH1 0x20 ADD SWAP1 PUSH1 0x1 ADD SWAP1 DUP1 DUP4 GT PUSH2 0x727 JUMPI JUMPDEST POP POP POP POP POP SWAP1 POP SWAP1 JUMP JUMPDEST PUSH1 0x1 PUSH1 0x1 PUSH1 0xA0 SHL SUB DUP2 AND PUSH0 SWAP1 DUP2 MSTORE PUSH1 0x2 PUSH1 0x20 MSTORE PUSH1 0x40 DUP2 KECCAK256 SLOAD DUP1 ISZERO PUSH2 0x7FD JUMPI PUSH0 DUP2 DUP2 MSTORE PUSH1 0x1 PUSH1 0x20 DUP2 SWAP1 MSTORE PUSH1 0x40 SWAP1 SWAP2 KECCAK256 SWAP1 DUP2 ADD PUSH2 0x781 DUP10 DUP12 DUP4 PUSH2 0x1072 JUMP JUMPDEST POP PUSH1 0x2 DUP2 ADD DUP8 SWAP1 SSTORE PUSH1 0x3 DUP2 ADD PUSH2 0x798 DUP7 DUP9 DUP4 PUSH2 0x1072 JUMP JUMPDEST POP PUSH1 0x4 DUP2 ADD DUP1 SLOAD PUSH1 0xFF PUSH1 0xA0 SHL NOT AND PUSH1 0x1 PUSH1 0xA0 SHL OR SWAP1 SSTORE PUSH1 0x40 MLOAD PUSH1 0x1 PUSH1 0x1 PUSH1 0xA0 SHL SUB DUP6 AND SWAP1 DUP4 SWAP1 PUSH32 0x5BFF06EA7416A9E74B3C84F839AE5374B91C213B0F140BFE1BCAF209A1EEC64F SWAP1 PUSH2 0x7ED SWAP1 DUP14 SWAP1 DUP14 SWAP1 PUSH2 0x112D JUMP JUMPDEST PUSH1 0x40 MLOAD DUP1 SWAP2 SUB SWAP1 LOG3 POP SWAP1 POP PUSH2 0xABD JUMP JUMPDEST PUSH0 DUP1 SLOAD SWAP1 DUP1 PUSH2 0x80B DUP4 PUSH2 0x115B JUMP JUMPDEST SWAP2 SWAP1 POP SSTORE SWAP2 POP PUSH1 0x40 MLOAD DUP1 PUSH2 0x160 ADD PUSH1 0x40 MSTORE DUP1 DUP4 DUP2 MSTORE PUSH1 0x20 ADD DUP10 DUP10 DUP1 DUP1 PUSH1 0x1F ADD PUSH1 0x20 DUP1 SWAP2 DIV MUL PUSH1 0x20 ADD PUSH1 0x40 MLOAD SWAP1 DUP2 ADD PUSH1 0x40 MSTORE DUP1 SWAP4 SWAP3 SWAP2 SWAP1 DUP2 DUP2 MSTORE PUSH1 0x20 ADD DUP4 DUP4 DUP1 DUP3 DUP5 CALLDATACOPY PUSH0 SWAP3 ADD SWAP2 SWAP1 SWAP2 MSTORE POP POP POP SWAP1 DUP3 MSTORE POP PUSH1 0x20 DUP1 DUP3 ADD DUP10 SWAP1 MSTORE PUSH1 0x40 DUP1 MLOAD PUSH1 0x1F DUP10 ADD DUP4 SWAP1 DIV DUP4 MUL DUP2 ADD DUP4 ADD DUP3 MSTORE DUP9 DUP2 MSTORE SWAP3 ADD SWAP2 SWAP1 DUP9 SWAP1 DUP9 SWAP1 DUP2 SWAP1 DUP5 ADD DUP4 DUP3 DUP1 DUP3 DUP5 CALLDATACOPY PUSH0 SWAP3 ADD DUP3 SWAP1 MSTORE POP SWAP4 DUP6 MSTORE POP POP POP PUSH1 0x1 PUSH1 0x1 PUSH1 0xA0 SHL SUB DUP7 AND PUSH1 0x20 DUP1 DUP5 ADD SWAP2 SWAP1 SWAP2 MSTORE PUSH1 0x1 PUSH1 0x40 DUP1 DUP6 ADD DUP3 SWAP1 MSTORE PUSH1 0x60 DUP1 DUP7 ADD DUP6 SWAP1 MSTORE PUSH1 0x80 DUP1 DUP8 ADD DUP7 SWAP1 MSTORE TIMESTAMP PUSH1 0xA0 DUP1 DUP10 ADD DUP3 SWAP1 MSTORE PUSH1 0xC0 DUP10 ADD SWAP2 SWAP1 SWAP2 MSTORE DUP4 MLOAD SWAP1 DUP2 ADD DUP5 MSTORE PUSH1 0x64 DUP2 MSTORE DUP1 DUP7 ADD DUP8 SWAP1 MSTORE DUP1 DUP5 ADD DUP8 SWAP1 MSTORE SWAP2 DUP3 ADD DUP7 SWAP1 MSTORE DUP2 ADD DUP6 SWAP1 MSTORE PUSH1 0xE0 SWAP1 SWAP6 ADD SWAP5 SWAP1 SWAP5 MSTORE DUP7 DUP4 MSTORE DUP1 DUP3 MSTORE SWAP3 SWAP1 SWAP2 KECCAK256 DUP4 MLOAD DUP2 SSTORE SWAP1 DUP4 ADD MLOAD SWAP1 SWAP2 DUP3 ADD SWAP1 PUSH2 0x922 SWAP1 DUP3 PUSH2 0x1173 JUMP JUMPDEST POP PUSH1 0x40 DUP3 ADD MLOAD PUSH1 0x2 DUP3 ADD SSTORE PUSH1 0x60 DUP3 ADD MLOAD PUSH1 0x3 DUP3 ADD SWAP1 PUSH2 0x941 SWAP1 DUP3 PUSH2 0x1173 JUMP JUMPDEST POP PUSH1 0x80 DUP3 DUP2 ADD MLOAD PUSH1 0x4 DUP4 ADD DUP1 SLOAD PUSH1 0xA0 DUP7 ADD MLOAD ISZERO ISZERO PUSH1 0x1 PUSH1 0xA0 SHL MUL PUSH1 0x1 PUSH1 0x1 PUSH1 0xA8 SHL SUB NOT SWAP1 SWAP2 AND PUSH1 0x1 PUSH1 0x1 PUSH1 0xA0 SHL SUB SWAP4 DUP5 AND OR OR SWAP1 SSTORE PUSH1 0xC0 DUP5 ADD MLOAD PUSH1 0x5 DUP5 ADD SSTORE PUSH1 0xE0 DUP5 ADD MLOAD PUSH1 0x6 DUP5 ADD SSTORE PUSH2 0x100 DUP5 ADD MLOAD PUSH1 0x7 DUP5 ADD SSTORE PUSH2 0x120 DUP5 ADD MLOAD PUSH1 0x8 DUP5 ADD SSTORE PUSH2 0x140 SWAP1 SWAP4 ADD MLOAD DUP1 MLOAD PUSH1 0x9 DUP5 ADD DUP1 SLOAD PUSH1 0x20 DUP1 DUP6 ADD MLOAD PUSH1 0x40 DUP1 DUP8 ADD MLOAD PUSH1 0x60 DUP9 ADD MLOAD PUSH1 0x1 PUSH1 0x1 PUSH1 0x40 SHL SUB SWAP1 DUP2 AND PUSH1 0x1 PUSH1 0xC0 SHL MUL PUSH1 0x1 PUSH1 0x1 PUSH1 0xC0 SHL SUB SWAP3 DUP3 AND PUSH1 0x1 PUSH1 0x80 SHL MUL SWAP3 SWAP1 SWAP3 AND PUSH16 0xFFFFFFFFFFFFFFFFFFFFFFFFFFFFFFFF SWAP5 DUP3 AND PUSH1 0x1 PUSH1 0x40 SHL MUL PUSH16 0xFFFFFFFFFFFFFFFFFFFFFFFFFFFFFFFF NOT SWAP1 SWAP8 AND SWAP2 SWAP1 SWAP9 AND OR SWAP5 SWAP1 SWAP5 OR SWAP2 SWAP1 SWAP2 AND SWAP5 SWAP1 SWAP5 OR SWAP2 SWAP1 SWAP2 OR SWAP1 SWAP2 SSTORE SWAP2 SWAP1 SWAP3 ADD MLOAD PUSH1 0xA SWAP1 SWAP4 ADD SWAP3 SWAP1 SWAP3 SSTORE SWAP2 DUP6 AND PUSH0 DUP2 DUP2 MSTORE PUSH1 0x2 SWAP1 SWAP3 MSTORE DUP3 DUP3 KECCAK256 DUP6 SWAP1 SSTORE PUSH1 0x3 DUP1 SLOAD PUSH1 0x1 DUP2 ADD DUP3 SSTORE SWAP3 MSTORE PUSH32 0xC2575A0E9E593C00F959F8C92F12DB2869C3395A3B0502D05E2516446F71F85B SWAP1 SWAP2 ADD DUP5 SWAP1 SSTORE SWAP1 MLOAD DUP4 SWAP1 PUSH32 0x5BFF06EA7416A9E74B3C84F839AE5374B91C213B0F140BFE1BCAF209A1EEC64F SWAP1 PUSH2 0xAB3 SWAP1 DUP13 SWAP1 DUP13 SWAP1 PUSH2 0x112D JUMP JUMPDEST PUSH1 0x40 MLOAD DUP1 SWAP2 SUB SWAP1 LOG3 POP JUMPDEST SWAP7 SWAP6 POP POP POP POP POP POP JUMP JUMPDEST PUSH1 0x40 MLOAD DUP1 PUSH2 0x160 ADD PUSH1 0x40 MSTORE DUP1 PUSH0 DUP2 MSTORE PUSH1 0x20 ADD PUSH1 0x60 DUP2 MSTORE PUSH1 0x20 ADD PUSH0 DUP2 MSTORE PUSH1 0x20 ADD PUSH1 0x60 DUP2 MSTORE PUSH1 0x20 ADD PUSH0 PUSH1 0x1 PUSH1 0x1 PUSH1 0xA0 SHL SUB AND DUP2 MSTORE PUSH1 0x20 ADD PUSH0 ISZERO ISZERO DUP2 MSTORE PUSH1 0x20 ADD PUSH0 DUP2 MSTORE PUSH1 0x20 ADD PUSH0 DUP2 MSTORE PUSH1 0x20 ADD PUSH0 DUP2 MSTORE PUSH1 0x20 ADD PUSH0 DUP2 MSTORE PUSH1 0x20 ADD PUSH2 0xB4C PUSH1 0x40 DUP1 MLOAD PUSH1 0xA0 DUP2 ADD DUP3 MSTORE PUSH0 DUP1 DUP3 MSTORE PUSH1 0x20 DUP3 ADD DUP2 SWAP1 MSTORE SWAP2 DUP2 ADD DUP3 SWAP1 MSTORE PUSH1 0x60 DUP2 ADD DUP3 SWAP1 MSTORE PUSH1 0x80 DUP2 ADD SWAP2 SWAP1 SWAP2 MSTORE SWAP1 JUMP JUMPDEST SWAP1 MSTORE SWAP1 JUMP JUMPDEST PUSH0 PUSH1 0x20 DUP3 DUP5 SUB SLT ISZERO PUSH2 0xB61 JUMPI PUSH0 DUP1 REVERT JUMPDEST POP CALLDATALOAD SWAP2 SWAP1 POP JUMP JUMPDEST PUSH1 0xA0 DUP2 ADD PUSH2 0xBB2 DUP3 DUP5 PUSH1 0x1 PUSH1 0x1 PUSH1 0x40 SHL SUB DUP1 DUP3 MLOAD AND DUP4 MSTORE DUP1 PUSH1 0x20 DUP4 ADD MLOAD AND PUSH1 0x20 DUP5 ADD MSTORE DUP1 PUSH1 0x40 DUP4 ADD MLOAD AND PUSH1 0x40 DUP5 ADD MSTORE DUP1 PUSH1 0x60 DUP4 ADD MLOAD AND PUSH1 0x60 DUP5 ADD MSTORE POP PUSH1 0x80 DUP2 ADD MLOAD PUSH1 0x80 DUP4 ADD MSTORE POP POP JUMP JUMPDEST SWAP3 SWAP2 POP POP JUMP JUMPDEST DUP1 CALLDATALOAD PUSH1 0x1 PUSH1 0x1 PUSH1 0x40 SHL SUB DUP2 AND DUP2 EQ PUSH2 0xBCE JUMPI PUSH0 DUP1 REVERT JUMPDEST SWAP2 SWAP1 POP JUMP JUMPDEST PUSH0 DUP1 PUSH0 DUP1 PUSH0 PUSH1 0xA0 DUP7 DUP9 SUB SLT ISZERO PUSH2 0xBE7 JUMPI PUSH0 DUP1 REVERT JUMPDEST DUP6 CALLDATALOAD SWAP5 POP PUSH1 0x20 DUP7 ADD CALLDATALOAD SWAP4 POP PUSH1 0x40 DUP7 ADD CALLDATALOAD SWAP3 POP PUSH2 0xC05 PUSH1 0x60 DUP8 ADD PUSH2 0xBB8 JUMP JUMPDEST SWAP2 POP PUSH2 0xC13 PUSH1 0x80 DUP8 ADD PUSH2 0xBB8 JUMP JUMPDEST SWAP1 POP SWAP3 SWAP6 POP SWAP3 SWAP6 SWAP1 SWAP4 POP JUMP JUMPDEST PUSH0 DUP2 MLOAD DUP1 DUP5 MSTORE PUSH0 JUMPDEST DUP2 DUP2 LT ISZERO PUSH2 0xC43 JUMPI PUSH1 0x20 DUP2 DUP6 ADD DUP2 ADD MLOAD DUP7 DUP4 ADD DUP3 ADD MSTORE ADD PUSH2 0xC27 JUMP JUMPDEST POP PUSH0 PUSH1 0x20 DUP3 DUP7 ADD ADD MSTORE PUSH1 0x20 PUSH1 0x1F NOT PUSH1 0x1F DUP4 ADD AND DUP6 ADD ADD SWAP2 POP POP SWAP3 SWAP2 POP POP JUMP JUMPDEST PUSH1 0x20 DUP2 MSTORE DUP2 MLOAD PUSH1 0x20 DUP3 ADD MSTORE PUSH0 PUSH1 0x20 DUP4 ADD MLOAD PUSH2 0x1E0 PUSH1 0x40 DUP5 ADD MSTORE PUSH2 0xC89 PUSH2 0x200 DUP5 ADD DUP3 PUSH2 0xC1F JUMP JUMPDEST SWAP1 POP PUSH1 0x40 DUP5 ADD MLOAD PUSH1 0x60 DUP5 ADD MSTORE PUSH1 0x60 DUP5 ADD MLOAD PUSH1 0x1F NOT DUP5 DUP4 SUB ADD PUSH1 0x80 DUP6 ADD MSTORE PUSH2 0xCB0 DUP3 DUP3 PUSH2 0xC1F JUMP JUMPDEST SWAP2 POP POP PUSH1 0x80 DUP5 ADD MLOAD PUSH2 0xCCD PUSH1 0xA0 DUP6 ADD DUP3 PUSH1 0x1 PUSH1 0x1 PUSH1 0xA0 SHL SUB AND SWAP1 MSTORE JUMP JUMPDEST POP PUSH1 0xA0 DUP5 ADD MLOAD DUP1 ISZERO ISZERO PUSH1 0xC0 DUP6 ADD MSTORE POP PUSH1 0xC0 DUP5 ADD MLOAD PUSH1 0xE0 DUP5 DUP2 ADD SWAP2 SWAP1 SWAP2 MSTORE DUP5 ADD MLOAD PUSH2 0x100 DUP1 DUP6 ADD SWAP2 SWAP1 SWAP2 MSTORE DUP5 ADD MLOAD PUSH2 0x120 DUP1 DUP6 ADD SWAP2 SWAP1 SWAP2 MSTORE DUP5 ADD MLOAD PUSH2 0x140 DUP1 DUP6 ADD SWAP2 SWAP1 SWAP2 MSTORE DUP5 ADD MLOAD DUP1 MLOAD PUSH1 0x1 PUSH1 0x1 PUSH1 0x40 SHL SUB SWAP1 DUP2 AND PUSH2 0x160 DUP7 ADD MSTORE PUSH1 0x20 DUP3 ADD MLOAD DUP2 AND PUSH2 0x180 DUP7 ADD MSTORE PUSH1 0x40 DUP3 ADD MLOAD DUP2 AND PUSH2 0x1A0 DUP7 ADD MSTORE PUSH1 0x60 DUP3 ADD MLOAD AND PUSH2 0x1C0 DUP6 ADD MSTORE PUSH1 0x80 DUP2 ADD MLOAD PUSH2 0x1E0 DUP6 ADD MSTORE POP SWAP4 SWAP3 POP POP POP JUMP JUMPDEST PUSH1 0x20 DUP1 DUP3 MSTORE DUP3 MLOAD DUP3 DUP3 ADD DUP2 SWAP1 MSTORE PUSH0 SWAP2 SWAP1 DUP5 DUP3 ADD SWAP1 PUSH1 0x40 DUP6 ADD SWAP1 DUP5 JUMPDEST DUP2 DUP2 LT ISZERO PUSH2 0xD97 JUMPI DUP4 MLOAD DUP4 MSTORE SWAP3 DUP5 ADD SWAP3 SWAP2 DUP5 ADD SWAP2 PUSH1 0x1 ADD PUSH2 0xD7B JUMP JUMPDEST POP SWAP1 SWAP7 SWAP6 POP POP POP POP POP POP JUMP JUMPDEST DUP1 CALLDATALOAD PUSH1 0x1 PUSH1 0x1 PUSH1 0xA0 SHL SUB DUP2 AND DUP2 EQ PUSH2 0xBCE JUMPI PUSH0 DUP1 REVERT JUMPDEST PUSH0 PUSH1 0x20 DUP3 DUP5 SUB SLT ISZERO PUSH2 0xDC9 JUMPI PUSH0 DUP1 REVERT JUMPDEST PUSH2 0xDD2 DUP3 PUSH2 0xDA3 JUMP JUMPDEST SWAP4 SWAP3 POP POP POP JUMP JUMPDEST PUSH0 DUP1 DUP4 PUSH1 0x1F DUP5 ADD SLT PUSH2 0xDE9 JUMPI PUSH0 DUP1 REVERT JUMPDEST POP DUP2 CALLDATALOAD PUSH1 0x1 PUSH1 0x1 PUSH1 0x40 SHL SUB DUP2 GT ISZERO PUSH2 0xDFF JUMPI PUSH0 DUP1 REVERT JUMPDEST PUSH1 0x20 DUP4 ADD SWAP2 POP DUP4 PUSH1 0x20 DUP3 DUP6 ADD ADD GT ISZERO PUSH2 0xE16 JUMPI PUSH0 DUP1 REVERT JUMPDEST SWAP3 POP SWAP3 SWAP1 POP JUMP JUMPDEST PUSH0 DUP1 PUSH0 DUP1 PUSH0 DUP1 PUSH1 0x80 DUP8 DUP10 SUB SLT ISZERO PUSH2 0xE32 JUMPI PUSH0 DUP1 REVERT JUMPDEST DUP7 CALLDATALOAD PUSH1 0x1 PUSH1 0x1 PUSH1 0x40 SHL SUB DUP1 DUP3 GT ISZERO PUSH2 0xE48 JUMPI PUSH0 DUP1 REVERT JUMPDEST PUSH2 0xE54 DUP11 DUP4 DUP12 ADD PUSH2 0xDD9 JUMP JUMPDEST SWAP1 SWAP9 POP SWAP7 POP PUSH1 0x20 DUP10 ADD CALLDATALOAD SWAP6 POP PUSH1 0x40 DUP10 ADD CALLDATALOAD SWAP2 POP DUP1 DUP3 GT ISZERO PUSH2 0xE73 JUMPI PUSH0 DUP1 REVERT JUMPDEST POP PUSH2 0xE80 DUP10 DUP3 DUP11 ADD PUSH2 0xDD9 JUMP JUMPDEST SWAP1 SWAP5 POP SWAP3 POP PUSH2 0xE93 SWAP1 POP PUSH1 0x60 DUP9 ADD PUSH2 0xDA3 JUMP JUMPDEST SWAP1 POP SWAP3 SWAP6 POP SWAP3 SWAP6 POP SWAP3 SWAP6 JUMP JUMPDEST PUSH1 0x20 DUP1 DUP3 MSTORE PUSH1 0x3C SWAP1 DUP3 ADD MSTORE PUSH32 0x496E666572656E636550726F766964657252656769737472793A2063616C6C65 PUSH1 0x40 DUP3 ADD MSTORE PUSH32 0x72206973206E6F74207468652070726F76696465722077616C6C657400000000 PUSH1 0x60 DUP3 ADD MSTORE PUSH1 0x80 ADD SWAP1 JUMP JUMPDEST PUSH4 0x4E487B71 PUSH1 0xE0 SHL PUSH0 MSTORE PUSH1 0x11 PUSH1 0x4 MSTORE PUSH1 0x24 PUSH0 REVERT JUMPDEST DUP1 DUP3 ADD DUP1 DUP3 GT ISZERO PUSH2 0xBB2 JUMPI PUSH2 0xBB2 PUSH2 0xEFC JUMP JUMPDEST PUSH1 0x1 PUSH1 0x1 PUSH1 0x40 SHL SUB DUP2 DUP2 AND DUP4 DUP3 AND ADD SWAP1 DUP1 DUP3 GT ISZERO PUSH2 0xF43 JUMPI PUSH2 0xF43 PUSH2 0xEFC JUMP JUMPDEST POP SWAP3 SWAP2 POP POP JUMP JUMPDEST PUSH1 0x1 PUSH1 0x1 PUSH1 0x40 SHL SUB DUP2 DUP2 AND DUP4 DUP3 AND MUL DUP1 DUP3 AND SWAP2 SWAP1 DUP3 DUP2 EQ PUSH2 0xF6D JUMPI PUSH2 0xF6D PUSH2 0xEFC JUMP JUMPDEST POP POP SWAP3 SWAP2 POP POP JUMP JUMPDEST PUSH4 0x4E487B71 PUSH1 0xE0 SHL PUSH0 MSTORE PUSH1 0x12 PUSH1 0x4 MSTORE PUSH1 0x24 PUSH0 REVERT JUMPDEST PUSH0 PUSH1 0x1 PUSH1 0x1 PUSH1 0x40 SHL SUB DUP1 DUP5 AND DUP1 PUSH2 0xFA2 JUMPI PUSH2 0xFA2 PUSH2 0xF75 JUMP JUMPDEST SWAP3 AND SWAP2 SWAP1 SWAP2 DIV SWAP3 SWAP2 POP POP JUMP JUMPDEST DUP1 DUP3 MUL DUP2 ISZERO DUP3 DUP3 DIV DUP5 EQ OR PUSH2 0xBB2 JUMPI PUSH2 0xBB2 PUSH2 0xEFC JUMP JUMPDEST PUSH0 DUP3 PUSH2 0xFD3 JUMPI PUSH2 0xFD3 PUSH2 0xF75 JUMP JUMPDEST POP DIV SWAP1 JUMP JUMPDEST PUSH1 0x1 DUP2 DUP2 SHR SWAP1 DUP3 AND DUP1 PUSH2 0xFEC JUMPI PUSH1 0x7F DUP3 AND SWAP2 POP JUMPDEST PUSH1 0x20 DUP3 LT DUP2 SUB PUSH2 0x100A JUMPI PUSH4 0x4E487B71 PUSH1 0xE0 SHL PUSH0 MSTORE PUSH1 0x22 PUSH1 0x4 MSTORE PUSH1 0x24 PUSH0 REVERT JUMPDEST POP SWAP2 SWAP1 POP JUMP JUMPDEST PUSH4 0x4E487B71 PUSH1 0xE0 SHL PUSH0 MSTORE PUSH1 0x41 PUSH1 0x4 MSTORE PUSH1 0x24 PUSH0 REVERT JUMPDEST PUSH1 0x1F DUP3 GT ISZERO PUSH2 0x106D JUMPI PUSH0 DUP2 DUP2 MSTORE PUSH1 0x20 DUP2 KECCAK256 PUSH1 0x1F DUP6 ADD PUSH1 0x5 SHR DUP2 ADD PUSH1 0x20 DUP7 LT ISZERO PUSH2 0x104A JUMPI POP DUP1 JUMPDEST PUSH1 0x1F DUP6 ADD PUSH1 0x5 SHR DUP3 ADD SWAP2 POP JUMPDEST DUP2 DUP2 LT ISZERO PUSH2 0x1069 JUMPI DUP3 DUP2 SSTORE PUSH1 0x1 ADD PUSH2 0x1056 JUMP JUMPDEST POP POP POP JUMPDEST POP POP POP JUMP JUMPDEST PUSH1 0x1 PUSH1 0x1 PUSH1 0x40 SHL SUB DUP4 GT ISZERO PUSH2 0x1089 JUMPI PUSH2 0x1089 PUSH2 0x1010 JUMP JUMPDEST PUSH2 0x109D DUP4 PUSH2 0x1097 DUP4 SLOAD PUSH2 0xFD8 JUMP JUMPDEST DUP4 PUSH2 0x1024 JUMP JUMPDEST PUSH0 PUSH1 0x1F DUP5 GT PUSH1 0x1 DUP2 EQ PUSH2 0x10CE JUMPI PUSH0 DUP6 ISZERO PUSH2 0x10B7 JUMPI POP DUP4 DUP3 ADD CALLDATALOAD JUMPDEST PUSH0 NOT PUSH1 0x3 DUP8 SWAP1 SHL SHR NOT AND PUSH1 0x1 DUP7 SWAP1 SHL OR DUP4 SSTORE PUSH2 0x1126 JUMP JUMPDEST PUSH0 DUP4 DUP2 MSTORE PUSH1 0x20 SWAP1 KECCAK256 PUSH1 0x1F NOT DUP7 AND SWAP1 DUP4 JUMPDEST DUP3 DUP2 LT ISZERO PUSH2 0x10FE JUMPI DUP7 DUP6 ADD CALLDATALOAD DUP3 SSTORE PUSH1 0x20 SWAP5 DUP6 ADD SWAP5 PUSH1 0x1 SWAP1 SWAP3 ADD SWAP2 ADD PUSH2 0x10DE JUMP JUMPDEST POP DUP7 DUP3 LT ISZERO PUSH2 0x111A JUMPI PUSH0 NOT PUSH1 0xF8 DUP9 PUSH1 0x3 SHL AND SHR NOT DUP5 DUP8 ADD CALLDATALOAD AND DUP2 SSTORE JUMPDEST POP POP PUSH1 0x1 DUP6 PUSH1 0x1 SHL ADD DUP4 SSTORE JUMPDEST POP POP POP POP POP JUMP JUMPDEST PUSH1 0x20 DUP2 MSTORE DUP2 PUSH1 0x20 DUP3 ADD MSTORE DUP2 DUP4 PUSH1 0x40 DUP4 ADD CALLDATACOPY PUSH0 DUP2 DUP4 ADD PUSH1 0x40 SWAP1 DUP2 ADD SWAP2 SWAP1 SWAP2 MSTORE PUSH1 0x1F SWAP1 SWAP3 ADD PUSH1 0x1F NOT AND ADD ADD SWAP2 SWAP1 POP JUMP JUMPDEST PUSH0 PUSH1 0x1 DUP3 ADD PUSH2 0x116C JUMPI PUSH2 0x116C PUSH2 0xEFC JUMP JUMPDEST POP PUSH1 0x1 ADD SWAP1 JUMP JUMPDEST DUP2 MLOAD PUSH1 0x1 PUSH1 0x1 PUSH1 0x40 SHL SUB DUP2 GT ISZERO PUSH2 0x118C JUMPI PUSH2 0x118C PUSH2 0x1010 JUMP JUMPDEST PUSH2 0x11A0 DUP2 PUSH2 0x119A DUP5 SLOAD PUSH2 0xFD8 JUMP JUMPDEST DUP5 PUSH2 0x1024 JUMP JUMPDEST PUSH1 0x20 DUP1 PUSH1 0x1F DUP4 GT PUSH1 0x1 DUP2 EQ PUSH2 0x11D3 JUMPI PUSH0 DUP5 ISZERO PUSH2 0x11BC JUMPI POP DUP6 DUP4 ADD MLOAD JUMPDEST PUSH0 NOT PUSH1 0x3 DUP7 SWAP1 SHL SHR NOT AND PUSH1 0x1 DUP6 SWAP1 SHL OR DUP6 SSTORE PUSH2 0x1069 JUMP JUMPDEST PUSH0 DUP6 DUP2 MSTORE PUSH1 0x20 DUP2 KECCAK256 PUSH1 0x1F NOT DUP7 AND SWAP2 JUMPDEST DUP3 DUP2 LT ISZERO PUSH2 0x1201 JUMPI DUP9 DUP7 ADD MLOAD DUP3 SSTORE SWAP5 DUP5 ADD SWAP5 PUSH1 0x1 SWAP1 SWAP2 ADD SWAP1 DUP5 ADD PUSH2 0x11E2 JUMP JUMPDEST POP DUP6 DUP3 LT ISZERO PUSH2 0x121E JUMPI DUP8 DUP6 ADD MLOAD PUSH0 NOT PUSH1 0x3 DUP9 SWAP1 SHL PUSH1 0xF8 AND SHR NOT AND DUP2 SSTORE JUMPDEST POP POP POP POP POP PUSH1 0x1 SWAP1 DUP2 SHL ADD SWAP1 SSTORE POP JUMP INVALID LOG2 PUSH5 0x6970667358 0x22 SLT KECCAK256 PUSH12 0xE37BE780402363CB0C54EC04 0xB0 0xC3 0x49 0xF7 0xB2 SWAP9 0xCC 0xBE 0xD6 CALLCODE SWAP15 PUSH7 0x18CADCC320CA64 PUSH5 0x736F6C6343 STOP ADDMOD EQ STOP CALLER "},"methodIdentifiers":{"deactivateProvider(uint256)":"540d2748","getAllProviderIds()":"76f30174","getProvider(uint256)":"5c42d079","getProviderReputation(uint256)":"0d2bbacb","providerIdByWallet(address)":"b5882071","registerProvider(string,uint256,string,address)":"bc689e93","reportMetrics(uint256,uint256,uint256,uint64,uint64)":"4509ba2b","totalProviders()":"96616b1f"}}}}}