{
  "_format": "hh3-artifact-1",
  "contractName": "InferenceProviderRegistry",
  "sourceName": "contracts/InferenceProviderRegistry.sol",
  "abi": [
    {
      "anonymous": false,
      "inputs": [
        {
          "indexed": true,
          "internalType": "uint256",
          "name": "providerId",
          "type": "uint256"
        },
        {
          "indexed": false,
          "internalType": "uint256",
          "name": "secondsRun",
          "type": "uint256"
        },
        {
          "indexed": false,
          "internalType": "uint256",
          "name": "earnedUsdc",
          "type": "uint256"
        }
      ],
      "name": "MetricsReported",
      "type": "event"
    },
    {
      "anonymous": false,
      "inputs": [
        {
          "indexed": true,
          "internalType": "uint256",
          "name": "providerId",
          "type": "uint256"
        }
      ],
      "name": "ProviderDeactivated",
      "type": "event"
    },
    {
      "anonymous": false,
      "inputs": [
        {
          "indexed": true,
          "internalType": "uint256",
          "name": "providerId",
          "type": "uint256"
        },
        {
          "indexed": true,
          "internalType": "address",
          "name": "wallet",
          "type": "address"
        },
        {
          "indexed": false,
          "internalType": "string",
          "name": "modelName",
          "type": "string"
        }
      ],
      "name": "ProviderRegistered",
      "type": "event"
    },
    {
      "inputs": [
        {
          "internalType": "uint256",
          "name": "providerId",
          "type": "uint256"
        }
      ],
      "name": "deactivateProvider",
      "outputs": [],
      "stateMutability": "nonpayable",
      "type": "function"
    },
    {
      "inputs": [],
      "name": "getAllProviderIds",
      "outputs": [
        {
          "internalType": "uint256[]",
          "name": "",
          "type": "uint256[]"
        }
      ],
      "stateMutability": "view",
      "type": "function"
    },
    {
      "inputs": [
        {
          "internalType": "uint256",
          "name": "providerId",
          "type": "uint256"
        }
      ],
      "name": "getProvider",
      "outputs": [
        {
          "components": [
            {
              "internalType": "uint256",
              "name": "id",
              "type": "uint256"
            },
            {
              "internalType": "string",
              "name": "modelName",
              "type": "string"
            },
            {
              "internalType": "uint256",
              "name": "basePrice",
              "type": "uint256"
            },
            {
              "internalType": "string",
              "name": "features",
              "type": "string"
            },
            {
              "internalType": "address",
              "name": "walletAddress",
              "type": "address"
            },
            {
              "internalType": "bool",
              "name": "isActive",
              "type": "bool"
            },
            {
              "internalType": "uint256",
              "name": "totalInferenceSeconds",
              "type": "uint256"
            },
            {
              "internalType": "uint256",
              "name": "totalUSDCEarned",
              "type": "uint256"
            },
            {
              "internalType": "uint256",
              "name": "registeredAt",
              "type": "uint256"
            },
            {
              "internalType": "uint256",
              "name": "lastReportAt",
              "type": "uint256"
            },
            {
              "components": [
                {
                  "internalType": "uint64",
                  "name": "uptimePct",
                  "type": "uint64"
                },
                {
                  "internalType": "uint64",
                  "name": "avgLatencyMs",
                  "type": "uint64"
                },
                {
                  "internalType": "uint64",
                  "name": "errorRatePpm",
                  "type": "uint64"
                },
                {
                  "internalType": "uint64",
                  "name": "totalSessions",
                  "type": "uint64"
                },
                {
                  "internalType": "uint256",
                  "name": "totalRevenue",
                  "type": "uint256"
                }
              ],
              "internalType": "struct InferenceProviderRegistry.ReputationScore",
              "name": "reputation",
              "type": "tuple"
            }
          ],
          "internalType": "struct InferenceProviderRegistry.Provider",
          "name": "",
          "type": "tuple"
        }
      ],
      "stateMutability": "view",
      "type": "function"
    },
    {
      "inputs": [
        {
          "internalType": "uint256",
          "name": "providerId",
          "type": "uint256"
        }
      ],
      "name": "getProviderReputation",
      "outputs": [
        {
          "components": [
            {
              "internalType": "uint64",
              "name": "uptimePct",
              "type": "uint64"
            },
            {
              "internalType": "uint64",
              "name": "avgLatencyMs",
              "type": "uint64"
            },
            {
              "internalType": "uint64",
              "name": "errorRatePpm",
              "type": "uint64"
            },
            {
              "internalType": "uint64",
              "name": "totalSessions",
              "type": "uint64"
            },
            {
              "internalType": "uint256",
              "name": "totalRevenue",
              "type": "uint256"
            }
          ],
          "internalType": "struct InferenceProviderRegistry.ReputationScore",
          "name": "",
          "type": "tuple"
        }
      ],
      "stateMutability": "view",
      "type": "function"
    },
    {
      "inputs": [
        {
          "internalType": "address",
          "name": "",
          "type": "address"
        }
      ],
      "name": "providerIdByWallet",
      "outputs": [
        {
          "internalType": "uint256",
          "name": "",
          "type": "uint256"
        }
      ],
      "stateMutability": "view",
      "type": "function"
    },
    {
      "inputs": [
        {
          "internalType": "string",
          "name": "modelName",
          "type": "string"
        },
        {
          "internalType": "uint256",
          "name": "basePrice",
          "type": "uint256"
        },
        {
          "internalType": "string",
          "name": "features",
          "type": "string"
        },
        {
          "internalType": "address",
          "name": "walletAddress",
          "type": "address"
        }
      ],
      "name": "registerProvider",
      "outputs": [
        {
          "internalType": "uint256",
          "name": "providerId",
          "type": "uint256"
        }
      ],
      "stateMutability": "nonpayable",
      "type": "function"
    },
    {
      "inputs": [
        {
          "internalType": "uint256",
          "name": "providerId",
          "type": "uint256"
        },
        {
          "internalType": "uint256",
          "name": "secondsRun",
          "type": "uint256"
        },
        {
          "internalType": "uint256",
          "name": "earnedUsdc",
          "type": "uint256"
        },
        {
          "internalType": "uint64",
          "name": "errorCount",
          "type": "uint64"
        },
        {
          "internalType": "uint64",
          "name": "avgLatencyMs",
          "type": "uint64"
        }
      ],
      "name": "reportMetrics",
      "outputs": [],
      "stateMutability": "nonpayable",
      "type": "function"
    },
    {
      "inputs": [],
      "name": "totalProviders",
      "outputs": [
        {
          "internalType": "uint256",
          "name": "",
          "type": "uint256"
        }
      ],
      "stateMutability": "view",
      "type": "function"
    }
  ],
  "bytecode": "0x608060405260015f55348015610013575f80fd5b50611264806100215f395ff3fe608060405234801561000f575f80fd5b5060043610610085575f3560e01c806376f301741161005857806376f301741461018757806396616b1f1461019c578063b5882071146101ae578063bc689e93146101cd575f80fd5b80630d2bbacb146100895780634509ba2b1461013f578063540d2748146101545780635c42d07914610167575b5f80fd5b610129610097366004610b51565b6040805160a0810182525f80825260208201819052918101829052606081018290526080810191909152505f90815260016020908152604091829020825160a08101845260098201546001600160401b038082168352600160401b8204811694830194909452600160801b8104841694820194909452600160c01b9093049091166060830152600a0154608082015290565b6040516101369190610b68565b60405180910390f35b61015261014d366004610bd3565b6101e0565b005b610152610162366004610b51565b61045f565b61017a610175366004610b51565b6104df565b6040516101369190610c62565b61018f6106ef565b6040516101369190610d60565b6003545b604051908152602001610136565b6101a06101bc366004610db9565b60026020525f908152604090205481565b6101a06101db366004610e1d565b610745565b5f8581526001602052604090206004015485906001600160a01b031633146102235760405162461bcd60e51b815260040161021a90610e9f565b60405180910390fd5b5f86815260016020526040812060058101805491928892610245908490610f10565b9250508190555084816006015f82825461025f9190610f10565b90915550504260088201556009810180546001908290601890610293908490600160c01b90046001600160401b0316610f23565b92506101000a8154816001600160401b0302191690836001600160401b0316021790555085816001015f8282546102ca9190610f10565b90915550508054600160401b90046001600160401b03165f0361030f57805467ffffffffffffffff60401b1916600160401b6001600160401b0386160217815561036d565b8054600890859061033190600160401b90046001600160401b03166007610f4a565b61033b9190610f23565b6103459190610f89565b81546001600160401b0391909116600160401b0267ffffffffffffffff60401b199091161781555b8054600160c01b90046001600160401b03161561041a5780546001600160401b0390600160c01b900481166103a7878316620f4240610fae565b6103b19190610fc5565b116103e95780546001600160401b03600160c01b9091048116906103da908716620f4240610fae565b6103e49190610fc5565b6103f2565b6001600160401b035b81546001600160401b0391909116600160801b0267ffffffffffffffff60801b199091161781555b604080518881526020810188905289917fccbf8d309918e6a57a3e541435064295b67d79563c3d244f3943d80c756f14ee910160405180910390a25050505050505050565b5f8181526001602052604090206004015481906001600160a01b031633146104995760405162461bcd60e51b815260040161021a90610e9f565b5f82815260016020526040808220600401805460ff60a01b191690555183917f21f8438182d8680a10580beb2bd887e639299b4354f2eef7144fddf6a63e899491a25050565b6104e7610ac7565b5f82815260016020818152604092839020835161016081019094528054845291820180549184019161051890610fd8565b80601f016020809104026020016040519081016040528092919081815260200182805461054490610fd8565b801561058f5780601f106105665761010080835404028352916020019161058f565b820191905f5260205f20905b81548152906001019060200180831161057257829003601f168201915b50505050508152602001600282015481526020016003820180546105b290610fd8565b80601f01602080910402602001604051908101604052809291908181526020018280546105de90610fd8565b80156106295780601f1061060057610100808354040283529160200191610629565b820191905f5260205f20905b81548152906001019060200180831161060c57829003601f168201915b505050918352505060048201546001600160a01b038116602080840191909152600160a01b90910460ff16151560408084019190915260058401546060808501919091526006850154608080860191909152600786015460a080870191909152600887015460c08701528351908101845260098701546001600160401b038082168352600160401b8204811696830196909652600160801b8104861694820194909452600160c01b90930490931690820152600a909301549083015260e0015292915050565b6060600380548060200260200160405190810160405280929190818152602001828054801561073b57602002820191905f5260205f20905b815481526020019060010190808311610727575b5050505050905090565b6001600160a01b0381165f9081526002602052604081205480156107fd575f818152600160208190526040909120908101610781898b83611072565b506002810187905560038101610798868883611072565b5060048101805460ff60a01b1916600160a01b1790556040516001600160a01b0385169083907f5bff06ea7416a9e74b3c84f839ae5374b91c213b0f140bfe1bcaf209a1eec64f906107ed908d908d9061112d565b60405180910390a3509050610abd565b5f8054908061080b8361115b565b91905055915060405180610160016040528083815260200189898080601f0160208091040260200160405190810160405280939291908181526020018383808284375f92019190915250505090825250602080820189905260408051601f890183900483028101830182528881529201919088908890819084018382808284375f9201829052509385525050506001600160a01b03861660208084019190915260016040808501829052606080860185905260808087018690524260a080890182905260c08901919091528351908101845260648152808601879052808401879052918201869052810185905260e09095019490945286835280825292909120835181559083015190918201906109229082611173565b5060408201516002820155606082015160038201906109419082611173565b5060808281015160048301805460a08601511515600160a01b026001600160a81b03199091166001600160a01b039384161717905560c0840151600584015560e084015160068401556101008401516007840155610120840151600884015561014090930151805160098401805460208085015160408087015160608801516001600160401b03908116600160c01b026001600160c01b03928216600160801b02929092166fffffffffffffffffffffffffffffffff948216600160401b026fffffffffffffffffffffffffffffffff199097169190981617949094179190911694909417919091179091559190920151600a909301929092559185165f81815260029092528282208590556003805460018101825592527fc2575a0e9e593c00f959f8c92f12db2869c3395a3b0502d05e2516446f71f85b909101849055905183907f5bff06ea7416a9e74b3c84f839ae5374b91c213b0f140bfe1bcaf209a1eec64f90610ab3908c908c9061112d565b60405180910390a3505b9695505050505050565b6040518061016001604052805f8152602001606081526020015f8152602001606081526020015f6001600160a01b031681526020015f151581526020015f81526020015f81526020015f81526020015f8152602001610b4c6040805160a0810182525f8082526020820181905291810182905260608101829052608081019190915290565b905290565b5f60208284031215610b61575f80fd5b5035919050565b60a08101610bb282846001600160401b0380825116835280602083015116602084015280604083015116604084015280606083015116606084015250608081015160808301525050565b92915050565b80356001600160401b0381168114610bce575f80fd5b919050565b5f805f805f60a08688031215610be7575f80fd5b853594506020860135935060408601359250610c0560608701610bb8565b9150610c1360808701610bb8565b90509295509295909350565b5f81518084525f5b81811015610c4357602081850181015186830182015201610c27565b505f602082860101526020601f19601f83011685010191505092915050565b60208152815160208201525f60208301516101e06040840152610c89610200840182610c1f565b9050604084015160608401526060840151601f19848303016080850152610cb08282610c1f565b9150506080840151610ccd60a08501826001600160a01b03169052565b5060a084015180151560c08501525060c084015160e08481019190915284015161010080850191909152840151610120808501919091528401516101408085019190915284015180516001600160401b0390811661016086015260208201518116610180860152604082015181166101a08601526060820151166101c085015260808101516101e0850152509392505050565b602080825282518282018190525f9190848201906040850190845b81811015610d9757835183529284019291840191600101610d7b565b50909695505050505050565b80356001600160a01b0381168114610bce575f80fd5b5f60208284031215610dc9575f80fd5b610dd282610da3565b9392505050565b5f8083601f840112610de9575f80fd5b5081356001600160401b03811115610dff575f80fd5b602083019150836020828501011115610e16575f80fd5b9250929050565b5f805f805f8060808789031215610e32575f80fd5b86356001600160401b0380821115610e48575f80fd5b610e548a838b01610dd9565b9098509650602089013595506040890135915080821115610e73575f80fd5b50610e8089828a01610dd9565b9094509250610e93905060608801610da3565b90509295509295509295565b6020808252603c908201527f496e666572656e636550726f766964657252656769737472793a2063616c6c6560408201527f72206973206e6f74207468652070726f76696465722077616c6c657400000000606082015260800190565b634e487b7160e01b5f52601160045260245ffd5b80820180821115610bb257610bb2610efc565b6001600160401b03818116838216019080821115610f4357610f43610efc565b5092915050565b6001600160401b03818116838216028082169190828114610f6d57610f6d610efc565b505092915050565b634e487b7160e01b5f52601260045260245ffd5b5f6001600160401b0380841680610fa257610fa2610f75565b92169190910492915050565b8082028115828204841417610bb257610bb2610efc565b5f82610fd357610fd3610f75565b500490565b600181811c90821680610fec57607f821691505b60208210810361100a57634e487b7160e01b5f52602260045260245ffd5b50919050565b634e487b7160e01b5f52604160045260245ffd5b601f82111561106d575f81815260208120601f850160051c8101602086101561104a5750805b601f850160051c820191505b8181101561106957828155600101611056565b5050505b505050565b6001600160401b0383111561108957611089611010565b61109d836110978354610fd8565b83611024565b5f601f8411600181146110ce575f85156110b75750838201355b5f19600387901b1c1916600186901b178355611126565b5f83815260209020601f19861690835b828110156110fe57868501358255602094850194600190920191016110de565b508682101561111a575f1960f88860031b161c19848701351681555b505060018560011b0183555b5050505050565b60208152816020820152818360408301375f818301604090810191909152601f909201601f19160101919050565b5f6001820161116c5761116c610efc565b5060010190565b81516001600160401b0381111561118c5761118c611010565b6111a08161119a8454610fd8565b84611024565b602080601f8311600181146111d3575f84156111bc5750858301515b5f19600386901b1c1916600185901b178555611069565b5f85815260208120601f198616915b82811015611201578886015182559484019460019091019084016111e2565b508582101561121e57878501515f19600388901b60f8161c191681555b5050505050600190811b0190555056fea26469706673582212206be37be780402363cb0c54ec04b0c349f7b298ccbed6f29e6618cadcc320ca6464736f6c63430008140033",
  "linkReferences": {},
  "deployedLinkReferences": {},
  "immutableReferences": {},
  "inputSourceName": "project/contracts/InferenceProviderRegistry.sol",
  "buildInfoId": "solc-0_8_20-0a1e80bcf67b3fce34f1649be12f5c297e45ec43"
}